{
  "contractName": "Chop",
  "abi": [
    {
      "inputs": [],
      "stateMutability": "nonpayable",
      "type": "constructor"
    },
    {
      "anonymous": false,
      "inputs": [
        {
          "indexed": true,
          "internalType": "uint256",
          "name": "id_chop",
          "type": "uint256"
        },
        {
          "indexed": false,
          "internalType": "string",
          "name": "tanggal_chop",
          "type": "string"
        }
      ],
      "name": "ChopAdded",
      "type": "event"
    },
    {
      "anonymous": false,
      "inputs": [
        {
          "indexed": true,
          "internalType": "uint256",
          "name": "id_chop",
          "type": "uint256"
        },
        {
          "indexed": false,
          "internalType": "string",
          "name": "tanggal_chop",
          "type": "string"
        }
      ],
      "name": "ChopUpdated",
      "type": "event"
    },
    {
      "inputs": [
        {
          "internalType": "string",
          "name": "_tanggal",
          "type": "string"
        }
      ],
      "name": "addChop",
      "outputs": [
        {
          "internalType": "uint256",
          "name": "",
          "type": "uint256"
        }
      ],
      "stateMutability": "nonpayable",
      "type": "function"
    },
    {
      "inputs": [
        {
          "internalType": "uint256",
          "name": "_id",
          "type": "uint256"
        },
        {
          "internalType": "string",
          "name": "_tanggal",
          "type": "string"
        }
      ],
      "name": "updateChop",
      "outputs": [],
      "stateMutability": "nonpayable",
      "type": "function"
    },
    {
      "inputs": [
        {
          "internalType": "uint256",
          "name": "_id",
          "type": "uint256"
        }
      ],
      "name": "getChop",
      "outputs": [
        {
          "components": [
            {
              "internalType": "uint256",
              "name": "id_chop",
              "type": "uint256"
            },
            {
              "internalType": "string",
              "name": "tanggal_chop",
              "type": "string"
            },
            {
              "internalType": "bool",
              "name": "exists",
              "type": "bool"
            }
          ],
          "internalType": "struct Chop.Chopper",
          "name": "",
          "type": "tuple"
        }
      ],
      "stateMutability": "view",
      "type": "function",
      "constant": true
    },
    {
      "inputs": [],
      "name": "getAllChop",
      "outputs": [
        {
          "components": [
            {
              "internalType": "uint256",
              "name": "id_chop",
              "type": "uint256"
            },
            {
              "internalType": "string",
              "name": "tanggal_chop",
              "type": "string"
            },
            {
              "internalType": "bool",
              "name": "exists",
              "type": "bool"
            }
          ],
          "internalType": "struct Chop.Chopper[]",
          "name": "",
          "type": "tuple[]"
        }
      ],
      "stateMutability": "view",
      "type": "function",
      "constant": true
    },
    {
      "inputs": [],
      "name": "getCountChop",
      "outputs": [
        {
          "internalType": "uint256",
          "name": "",
          "type": "uint256"
        }
      ],
      "stateMutability": "view",
      "type": "function",
      "constant": true
    },
    {
      "inputs": [],
      "name": "getNextId",
      "outputs": [
        {
          "internalType": "uint256",
          "name": "",
          "type": "uint256"
        }
      ],
      "stateMutability": "view",
      "type": "function",
      "constant": true
    },
    {
      "inputs": [
        {
          "internalType": "uint256",
          "name": "_id",
          "type": "uint256"
        }
      ],
      "name": "isValidChop",
      "outputs": [
        {
          "internalType": "bool",
          "name": "",
          "type": "bool"
        }
      ],
      "stateMutability": "view",
      "type": "function",
      "constant": true
    }
  ],
  "bytecode": "0x608060405234801561001057600080fd5b5060018081905550610f33806100276000396000f3fe608060405234801561001057600080fd5b506004361061007d5760003560e01c80636a003e161161005b5780636a003e16146100ee57806387b7dcbf1461010a5780638b31abdc1461013a578063bc9683261461016a5761007d565b80631f4d73f514610082578063462e11cb146100b257806354486d99146100d0575b600080fd5b61009c600480360381019061009791906108bd565b610188565b6040516100a99190610c93565b60405180910390f35b6100ba6102d3565b6040516100c79190610bd2565b60405180910390f35b6100d86104e0565b6040516100e59190610c93565b60405180910390f35b61010860048036038101906101039190610927565b6104ed565b005b610124600480360381019061011f91906108fe565b6105fd565b6040516101319190610c71565b60405180910390f35b610154600480360381019061014f91906108fe565b610744565b6040516101619190610bf4565b60405180910390f35b610172610770565b60405161017f9190610c93565b60405180910390f35b60008160008151116101cf576040517f08c379a00000000000000000000000000000000000000000000000000000000081526004016101c690610c51565b60405180910390fd5b6000600154905060405180606001604052808281526020018581526020016001151581525060008083815260200190815260200160002060008201518160000155602082015181600101908051906020019061022c92919061077a565b5060408201518160020160006101000a81548160ff02191690831515021790555090505060028190806001815401808255809150506001900390600052602060002001600090919091909150556001600081548092919061028c90610dff565b9190505550807f6d254277dad002168f922e0198192fc88ad2e81998468999cd8d5fe839c7cdf6856040516102c19190610c0f565b60405180910390a28092505050919050565b60606000600280549050905060008167ffffffffffffffff811115610321577f4e487b7100000000000000000000000000000000000000000000000000000000600052604160045260246000fd5b60405190808252806020026020018201604052801561035a57816020015b610347610800565b81526020019060019003908161033f5790505b50905060005b828110156104d757600080600283815481106103a5577f4e487b7100000000000000000000000000000000000000000000000000000000600052603260045260246000fd5b90600052602060002001548152602001908152602001600020604051806060016040529081600082015481526020016001820180546103e390610dcd565b80601f016020809104026020016040519081016040528092919081815260200182805461040f90610dcd565b801561045c5780601f106104315761010080835404028352916020019161045c565b820191906000526020600020905b81548152906001019060200180831161043f57829003601f168201915b505050505081526020016002820160009054906101000a900460ff1615151515815250508282815181106104b9577f4e487b7100000000000000000000000000000000000000000000000000000000600052603260045260246000fd5b602002602001018190525080806104cf90610dff565b915050610360565b50809250505090565b6000600280549050905090565b8160008082815260200190815260200160002060020160009054906101000a900460ff16610550576040517f08c379a000000000000000000000000000000000000000000000000000000000815260040161054790610c31565b60405180910390fd5b816000815111610595576040517f08c379a000000000000000000000000000000000000000000000000000000000815260040161058c90610c51565b60405180910390fd5b8260008086815260200190815260200160002060010190805190602001906105be92919061077a565b50837f2673db64941792949460ad07cf5c8bd2269440bf56d7bfcdd98420dbca5f9c91846040516105ef9190610c0f565b60405180910390a250505050565b610605610800565b8160008082815260200190815260200160002060020160009054906101000a900460ff16610668576040517f08c379a000000000000000000000000000000000000000000000000000000000815260040161065f90610c31565b60405180910390fd5b6000808481526020019081526020016000206040518060600160405290816000820154815260200160018201805461069f90610dcd565b80601f01602080910402602001604051908101604052809291908181526020018280546106cb90610dcd565b80156107185780601f106106ed57610100808354040283529160200191610718565b820191906000526020600020905b8154815290600101906020018083116106fb57829003601f168201915b505050505081526020016002820160009054906101000a900460ff161515151581525050915050919050565b600080600083815260200190815260200160002060020160009054906101000a900460ff169050919050565b6000600154905090565b82805461078690610dcd565b90600052602060002090601f0160209004810192826107a857600085556107ef565b82601f106107c157805160ff19168380011785556107ef565b828001600101855582156107ef579182015b828111156107ee5782518255916020019190600101906107d3565b5b5090506107fc9190610823565b5090565b604051806060016040528060008152602001606081526020016000151581525090565b5b8082111561083c576000816000905550600101610824565b5090565b600061085361084e84610cdf565b610cae565b90508281526020810184848401111561086b57600080fd5b610876848285610d8b565b509392505050565b600082601f83011261088f57600080fd5b813561089f848260208601610840565b91505092915050565b6000813590506108b781610ee6565b92915050565b6000602082840312156108cf57600080fd5b600082013567ffffffffffffffff8111156108e957600080fd5b6108f58482850161087e565b91505092915050565b60006020828403121561091057600080fd5b600061091e848285016108a8565b91505092915050565b6000806040838503121561093a57600080fd5b6000610948858286016108a8565b925050602083013567ffffffffffffffff81111561096557600080fd5b6109718582860161087e565b9150509250929050565b60006109878383610b14565b905092915050565b600061099a82610d1f565b6109a48185610d42565b9350836020820285016109b685610d0f565b8060005b858110156109f257848403895281516109d3858261097b565b94506109de83610d35565b925060208a019950506001810190506109ba565b50829750879550505050505092915050565b610a0d81610d75565b82525050565b610a1c81610d75565b82525050565b6000610a2d82610d2a565b610a378185610d53565b9350610a47818560208601610d9a565b610a5081610ed5565b840191505092915050565b6000610a6682610d2a565b610a708185610d64565b9350610a80818560208601610d9a565b610a8981610ed5565b840191505092915050565b6000610aa1601483610d64565b91507f43686f7020746964616b20646974656d756b616e0000000000000000000000006000830152602082019050919050565b6000610ae1601f83610d64565b91507f54616e6767616c2043686f7020746964616b20626f6c6568206b6f736f6e67006000830152602082019050919050565b6000606083016000830151610b2c6000860182610bb4565b5060208301518482036020860152610b448282610a22565b9150506040830151610b596040860182610a04565b508091505092915050565b6000606083016000830151610b7c6000860182610bb4565b5060208301518482036020860152610b948282610a22565b9150506040830151610ba96040860182610a04565b508091505092915050565b610bbd81610d81565b82525050565b610bcc81610d81565b82525050565b60006020820190508181036000830152610bec818461098f565b905092915050565b6000602082019050610c096000830184610a13565b92915050565b60006020820190508181036000830152610c298184610a5b565b905092915050565b60006020820190508181036000830152610c4a81610a94565b9050919050565b60006020820190508181036000830152610c6a81610ad4565b9050919050565b60006020820190508181036000830152610c8b8184610b64565b905092915050565b6000602082019050610ca86000830184610bc3565b92915050565b6000604051905081810181811067ffffffffffffffff82111715610cd557610cd4610ea6565b5b8060405250919050565b600067ffffffffffffffff821115610cfa57610cf9610ea6565b5b601f19601f8301169050602081019050919050565b6000819050602082019050919050565b600081519050919050565b600081519050919050565b6000602082019050919050565b600082825260208201905092915050565b600082825260208201905092915050565b600082825260208201905092915050565b60008115159050919050565b6000819050919050565b82818337600083830152505050565b60005b83811015610db8578082015181840152602081019050610d9d565b83811115610dc7576000848401525b50505050565b60006002820490506001821680610de557607f821691505b60208210811415610df957610df8610e77565b5b50919050565b6000610e0a82610d81565b91507fffffffffffffffffffffffffffffffffffffffffffffffffffffffffffffffff821415610e3d57610e3c610e48565b5b600182019050919050565b7f4e487b7100000000000000000000000000000000000000000000000000000000600052601160045260246000fd5b7f4e487b7100000000000000000000000000000000000000000000000000000000600052602260045260246000fd5b7f4e487b7100000000000000000000000000000000000000000000000000000000600052604160045260246000fd5b6000601f19601f8301169050919050565b610eef81610d81565b8114610efa57600080fd5b5056fea2646970667358221220f6910143e7ec58c5bafcf0faa1c73d0e0f444d7d864283bca3211e5da451101a64736f6c63430008000033",
  "immutableReferences": {},
  "source": "// SPDX-License-Identifier: MIT\npragma solidity ^0.8.0;\n\ncontract Chop {\n    struct Chopper {\n        uint256 id_chop;\n        string tanggal_chop;\n        bool exists;\n    }\n\n    mapping(uint256 => Chopper) private choppers;\n    uint256 private nextId;\n    uint256[] private chopIds;\n\n    event ChopAdded(uint256 indexed id_chop, string tanggal_chop);\n    event ChopUpdated(uint256 indexed id_chop, string tanggal_chop);\n\n    constructor() {\n        nextId = 1;\n    }\n\n    modifier validDate(string memory _tanggal) {\n        require(bytes(_tanggal).length > 0, \"Tanggal Chop tidak boleh kosong\");\n        _;\n    }\n\n    modifier chopExists(uint256 _id) {\n        require(choppers[_id].exists, \"Chop tidak ditemukan\");\n        _;\n    }\n\n    function addChop(\n        string memory _tanggal\n    ) public validDate(_tanggal) returns (uint256) {\n        uint256 currentId = nextId;\n\n        choppers[currentId] = Chopper({\n            id_chop: currentId,\n            tanggal_chop: _tanggal,\n            exists: true\n        });\n\n        chopIds.push(currentId);\n        nextId++;\n\n        emit ChopAdded(currentId, _tanggal);\n        return currentId;\n    }\n\n    function updateChop(\n        uint256 _id,\n        string memory _tanggal\n    ) public chopExists(_id) validDate(_tanggal) {\n        choppers[_id].tanggal_chop = _tanggal;\n        emit ChopUpdated(_id, _tanggal);\n    }\n\n    function getChop(\n        uint256 _id\n    ) public view chopExists(_id) returns (Chopper memory) {\n        return choppers[_id];\n    }\n\n    function getAllChop() public view returns (Chopper[] memory) {\n        uint256 activeCount = chopIds.length;\n        Chopper[] memory allChops = new Chopper[](activeCount);\n\n        for (uint256 i = 0; i < activeCount; i++) {\n            allChops[i] = choppers[chopIds[i]];\n        }\n\n        return allChops;\n    }\n\n    function getCountChop() public view returns (uint256) {\n        return chopIds.length;\n    }\n\n    function getNextId() public view returns (uint256) {\n        return nextId;\n    }\n\n    // Additional helper functions\n    function isValidChop(uint256 _id) public view returns (bool) {\n        return choppers[_id].exists;\n    }\n}\n",
  "sourcePath": "/Users/dhafinrr/Documents/applications/farmer-registry copy/contracts/Chop.sol",
  "compiler": {
    "name": "solc",
    "version": "0.8.0+commit.c7dfd78e.Emscripten.clang"
  },
  "schemaVersion": "3.4.16",
  "updatedAt": "2025-02-17T02:23:35.568Z",
  "networkType": "ethereum",
  "devdoc": {
    "kind": "dev",
    "methods": {},
    "version": 1
  },
  "userdoc": {
    "kind": "user",
    "methods": {},
    "version": 1
  }
}