{
  "contractName": "FarmerRegistry",
  "abi": [
    {
      "anonymous": false,
      "inputs": [
        {
          "indexed": false,
          "internalType": "string",
          "name": "id",
          "type": "string"
        },
        {
          "indexed": false,
          "internalType": "string",
          "name": "name",
          "type": "string"
        },
        {
          "indexed": false,
          "internalType": "string",
          "name": "farmerAddress",
          "type": "string"
        }
      ],
      "name": "FarmerRegistered",
      "type": "event"
    },
    {
      "anonymous": false,
      "inputs": [
        {
          "indexed": false,
          "internalType": "string",
          "name": "id",
          "type": "string"
        },
        {
          "indexed": false,
          "internalType": "string",
          "name": "name",
          "type": "string"
        },
        {
          "indexed": false,
          "internalType": "string",
          "name": "farmerAddress",
          "type": "string"
        }
      ],
      "name": "FarmerUpdated",
      "type": "event"
    },
    {
      "inputs": [
        {
          "internalType": "uint256",
          "name": "",
          "type": "uint256"
        }
      ],
      "name": "farmerIds",
      "outputs": [
        {
          "internalType": "string",
          "name": "",
          "type": "string"
        }
      ],
      "stateMutability": "view",
      "type": "function",
      "constant": true
    },
    {
      "inputs": [
        {
          "internalType": "string",
          "name": "",
          "type": "string"
        }
      ],
      "name": "farmers",
      "outputs": [
        {
          "internalType": "string",
          "name": "id",
          "type": "string"
        },
        {
          "internalType": "string",
          "name": "name",
          "type": "string"
        },
        {
          "internalType": "string",
          "name": "farmerAddress",
          "type": "string"
        },
        {
          "internalType": "bool",
          "name": "isRegistered",
          "type": "bool"
        }
      ],
      "stateMutability": "view",
      "type": "function",
      "constant": true
    },
    {
      "inputs": [
        {
          "internalType": "string",
          "name": "_id",
          "type": "string"
        },
        {
          "internalType": "string",
          "name": "_name",
          "type": "string"
        },
        {
          "internalType": "string",
          "name": "_address",
          "type": "string"
        }
      ],
      "name": "registerFarmer",
      "outputs": [],
      "stateMutability": "nonpayable",
      "type": "function"
    },
    {
      "inputs": [
        {
          "internalType": "string",
          "name": "_id",
          "type": "string"
        },
        {
          "internalType": "string",
          "name": "_name",
          "type": "string"
        },
        {
          "internalType": "string",
          "name": "_address",
          "type": "string"
        }
      ],
      "name": "updateFarmer",
      "outputs": [],
      "stateMutability": "nonpayable",
      "type": "function"
    },
    {
      "inputs": [
        {
          "internalType": "string",
          "name": "_id",
          "type": "string"
        }
      ],
      "name": "getFarmer",
      "outputs": [
        {
          "internalType": "string",
          "name": "",
          "type": "string"
        },
        {
          "internalType": "string",
          "name": "",
          "type": "string"
        },
        {
          "internalType": "string",
          "name": "",
          "type": "string"
        }
      ],
      "stateMutability": "view",
      "type": "function",
      "constant": true
    },
    {
      "inputs": [],
      "name": "getFarmers",
      "outputs": [
        {
          "components": [
            {
              "internalType": "string",
              "name": "id",
              "type": "string"
            },
            {
              "internalType": "string",
              "name": "name",
              "type": "string"
            },
            {
              "internalType": "string",
              "name": "farmerAddress",
              "type": "string"
            },
            {
              "internalType": "bool",
              "name": "isRegistered",
              "type": "bool"
            }
          ],
          "internalType": "struct FarmerRegistry.Farmer[]",
          "name": "",
          "type": "tuple[]"
        }
      ],
      "stateMutability": "view",
      "type": "function",
      "constant": true
    },
    {
      "inputs": [],
      "name": "getFarmerCount",
      "outputs": [
        {
          "internalType": "uint256",
          "name": "",
          "type": "uint256"
        }
      ],
      "stateMutability": "view",
      "type": "function",
      "constant": true
    }
  ],
  "bytecode": "0x608060405234801561001057600080fd5b50611874806100206000396000f3fe608060405234801561001057600080fd5b506004361061007d5760003560e01c8063789f8d401161005b578063789f8d4014610101578063999c78331461011f578063b15149421461013b578063c4a8b5d51461016d5761007d565b806329a566d2146100825780634ef051211461009e5780635cda3172146100ce575b600080fd5b61009c60048036038101906100979190610f8d565b61018b565b005b6100b860048036038101906100b39190611024565b6103fe565b6040516100c5919061144c565b60405180910390f35b6100e860048036038101906100e39190610f4c565b6104aa565b6040516100f894939291906114ba565b60405180910390f35b610109610695565b604051610116919061142a565b60405180910390f35b61013960048036038101906101349190610f8d565b6109c6565b005b61015560048036038101906101509190610f4c565b610b68565b6040516101649392919061146e565b60405180910390f35b610175610df5565b60405161018291906115b4565b60405180910390f35b60008351116101cf576040517f08c379a00000000000000000000000000000000000000000000000000000000081526004016101c690611554565b60405180910390fd5b6000825111610213576040517f08c379a000000000000000000000000000000000000000000000000000000000815260040161020a90611514565b60405180910390fd5b6000815111610257576040517f08c379a000000000000000000000000000000000000000000000000000000000815260040161024e90611534565b60405180910390fd5b60008360405161026791906113fc565b908152602001604051809103902060030160009054906101000a900460ff16156102c6576040517f08c379a00000000000000000000000000000000000000000000000000000000081526004016102bd90611574565b60405180910390fd5b6040518060800160405280848152602001838152602001828152602001600115158152506000846040516102fa91906113fc565b90815260200160405180910390206000820151816000019080519060200190610324929190610e02565b506020820151816001019080519060200190610341929190610e02565b50604082015181600201908051906020019061035e929190610e02565b5060608201518160030160006101000a81548160ff0219169083151502179055509050506001839080600181540180825580915050600190039060005260206000200160009091909190915090805190602001906103bd929190610e02565b507f5ab1c7e422df7fba1d13368e71f3f1434640be4475e338c20d8f3a427db13ff58383836040516103f19392919061146e565b60405180910390a1505050565b6001818154811061040e57600080fd5b9060005260206000200160009150905080546104299061170e565b80601f01602080910402602001604051908101604052809291908181526020018280546104559061170e565b80156104a25780601f10610477576101008083540402835291602001916104a2565b820191906000526020600020905b81548152906001019060200180831161048557829003601f168201915b505050505081565b6000818051602081018201805184825260208301602085012081835280955050505050506000915090508060000180546104e39061170e565b80601f016020809104026020016040519081016040528092919081815260200182805461050f9061170e565b801561055c5780601f106105315761010080835404028352916020019161055c565b820191906000526020600020905b81548152906001019060200180831161053f57829003601f168201915b5050505050908060010180546105719061170e565b80601f016020809104026020016040519081016040528092919081815260200182805461059d9061170e565b80156105ea5780601f106105bf576101008083540402835291602001916105ea565b820191906000526020600020905b8154815290600101906020018083116105cd57829003601f168201915b5050505050908060020180546105ff9061170e565b80601f016020809104026020016040519081016040528092919081815260200182805461062b9061170e565b80156106785780601f1061064d57610100808354040283529160200191610678565b820191906000526020600020905b81548152906001019060200180831161065b57829003601f168201915b5050505050908060030160009054906101000a900460ff16905084565b6060600060018054905067ffffffffffffffff8111156106de577f4e487b7100000000000000000000000000000000000000000000000000000000600052604160045260246000fd5b60405190808252806020026020018201604052801561071757816020015b610704610e88565b8152602001906001900390816106fc5790505b50905060005b6001805490508110156109be57600060018281548110610766577f4e487b7100000000000000000000000000000000000000000000000000000000600052603260045260246000fd5b9060005260206000200160405161077d9190611413565b90815260200160405180910390206040518060800160405290816000820180546107a69061170e565b80601f01602080910402602001604051908101604052809291908181526020018280546107d29061170e565b801561081f5780601f106107f45761010080835404028352916020019161081f565b820191906000526020600020905b81548152906001019060200180831161080257829003601f168201915b505050505081526020016001820180546108389061170e565b80601f01602080910402602001604051908101604052809291908181526020018280546108649061170e565b80156108b15780601f10610886576101008083540402835291602001916108b1565b820191906000526020600020905b81548152906001019060200180831161089457829003601f168201915b505050505081526020016002820180546108ca9061170e565b80601f01602080910402602001604051908101604052809291908181526020018280546108f69061170e565b80156109435780601f1061091857610100808354040283529160200191610943565b820191906000526020600020905b81548152906001019060200180831161092657829003601f168201915b505050505081526020016003820160009054906101000a900460ff1615151515815250508282815181106109a0577f4e487b7100000000000000000000000000000000000000000000000000000000600052603260045260246000fd5b602002602001018190525080806109b690611740565b91505061071d565b508091505090565b6000836040516109d691906113fc565b908152602001604051809103902060030160009054906101000a900460ff16610a34576040517f08c379a0000000000000000000000000000000000000000000000000000000008152600401610a2b90611594565b60405180910390fd5b6000825111610a78576040517f08c379a0000000000000000000000000000000000000000000000000000000008152600401610a6f90611514565b60405180910390fd5b6000815111610abc576040517f08c379a0000000000000000000000000000000000000000000000000000000008152600401610ab390611534565b60405180910390fd5b81600084604051610acd91906113fc565b90815260200160405180910390206001019080519060200190610af1929190610e02565b5080600084604051610b0391906113fc565b90815260200160405180910390206002019080519060200190610b27929190610e02565b507fad4430839f1ef561dc358566af2b3471a4a9ea9a908cfc2db74dc95c5b2aad77838383604051610b5b9392919061146e565b60405180910390a1505050565b6060806060600084604051610b7d91906113fc565b908152602001604051809103902060030160009054906101000a900460ff16610bdb576040517f08c379a0000000000000000000000000000000000000000000000000000000008152600401610bd290611594565b60405180910390fd5b60008085604051610bec91906113fc565b9081526020016040518091039020604051806080016040529081600082018054610c159061170e565b80601f0160208091040260200160405190810160405280929190818152602001828054610c419061170e565b8015610c8e5780601f10610c6357610100808354040283529160200191610c8e565b820191906000526020600020905b815481529060010190602001808311610c7157829003601f168201915b50505050508152602001600182018054610ca79061170e565b80601f0160208091040260200160405190810160405280929190818152602001828054610cd39061170e565b8015610d205780601f10610cf557610100808354040283529160200191610d20565b820191906000526020600020905b815481529060010190602001808311610d0357829003601f168201915b50505050508152602001600282018054610d399061170e565b80601f0160208091040260200160405190810160405280929190818152602001828054610d659061170e565b8015610db25780601f10610d8757610100808354040283529160200191610db2565b820191906000526020600020905b815481529060010190602001808311610d9557829003601f168201915b505050505081526020016003820160009054906101000a900460ff1615151515815250509050806000015181602001518260400151935093509350509193909250565b6000600180549050905090565b828054610e0e9061170e565b90600052602060002090601f016020900481019282610e305760008555610e77565b82601f10610e4957805160ff1916838001178555610e77565b82800160010185558215610e77579182015b82811115610e76578251825591602001919060010190610e5b565b5b509050610e849190610eb2565b5090565b60405180608001604052806060815260200160608152602001606081526020016000151581525090565b5b80821115610ecb576000816000905550600101610eb3565b5090565b6000610ee2610edd84611600565b6115cf565b905082815260208101848484011115610efa57600080fd5b610f058482856116cc565b509392505050565b600082601f830112610f1e57600080fd5b8135610f2e848260208601610ecf565b91505092915050565b600081359050610f4681611827565b92915050565b600060208284031215610f5e57600080fd5b600082013567ffffffffffffffff811115610f7857600080fd5b610f8484828501610f0d565b91505092915050565b600080600060608486031215610fa257600080fd5b600084013567ffffffffffffffff811115610fbc57600080fd5b610fc886828701610f0d565b935050602084013567ffffffffffffffff811115610fe557600080fd5b610ff186828701610f0d565b925050604084013567ffffffffffffffff81111561100e57600080fd5b61101a86828701610f0d565b9150509250925092565b60006020828403121561103657600080fd5b600061104484828501610f37565b91505092915050565b6000611059838361137c565b905092915050565b600061106c82611655565b6110768185611678565b93508360208202850161108885611630565b8060005b858110156110c457848403895281516110a5858261104d565b94506110b08361166b565b925060208a0199505060018101905061108c565b50829750879550505050505092915050565b6110df816116b6565b82525050565b6110ee816116b6565b82525050565b60006110ff82611660565b6111098185611689565b93506111198185602086016116db565b61112281611816565b840191505092915050565b600061113882611660565b611142818561169a565b93506111528185602086016116db565b61115b81611816565b840191505092915050565b600061117182611660565b61117b81856116ab565b935061118b8185602086016116db565b80840191505092915050565b600081546111a48161170e565b6111ae81866116ab565b945060018216600081146111c957600181146111da5761120d565b60ff1983168652818601935061120d565b6111e385611640565b60005b83811015611205578154818901526001820191506020810190506111e6565b838801955050505b50505092915050565b600061122360148361169a565b91507f4e616d652063616e6e6f7420626520656d7074790000000000000000000000006000830152602082019050919050565b600061126360178361169a565b91507f416464726573732063616e6e6f7420626520656d7074790000000000000000006000830152602082019050919050565b60006112a360128361169a565b91507f49442063616e6e6f7420626520656d70747900000000000000000000000000006000830152602082019050919050565b60006112e360228361169a565b91507f4661726d65722077697468207468697320494420616c7265616479206578697360008301527f74730000000000000000000000000000000000000000000000000000000000006020830152604082019050919050565b600061134960158361169a565b91507f4661726d657220646f6573206e6f7420657869737400000000000000000000006000830152602082019050919050565b6000608083016000830151848203600086015261139982826110f4565b915050602083015184820360208601526113b382826110f4565b915050604083015184820360408601526113cd82826110f4565b91505060608301516113e260608601826110d6565b508091505092915050565b6113f6816116c2565b82525050565b60006114088284611166565b915081905092915050565b600061141f8284611197565b915081905092915050565b600060208201905081810360008301526114448184611061565b905092915050565b60006020820190508181036000830152611466818461112d565b905092915050565b60006060820190508181036000830152611488818661112d565b9050818103602083015261149c818561112d565b905081810360408301526114b0818461112d565b9050949350505050565b600060808201905081810360008301526114d4818761112d565b905081810360208301526114e8818661112d565b905081810360408301526114fc818561112d565b905061150b60608301846110e5565b95945050505050565b6000602082019050818103600083015261152d81611216565b9050919050565b6000602082019050818103600083015261154d81611256565b9050919050565b6000602082019050818103600083015261156d81611296565b9050919050565b6000602082019050818103600083015261158d816112d6565b9050919050565b600060208201905081810360008301526115ad8161133c565b9050919050565b60006020820190506115c960008301846113ed565b92915050565b6000604051905081810181811067ffffffffffffffff821117156115f6576115f56117e7565b5b8060405250919050565b600067ffffffffffffffff82111561161b5761161a6117e7565b5b601f19601f8301169050602081019050919050565b6000819050602082019050919050565b60008190508160005260206000209050919050565b600081519050919050565b600081519050919050565b6000602082019050919050565b600082825260208201905092915050565b600082825260208201905092915050565b600082825260208201905092915050565b600081905092915050565b60008115159050919050565b6000819050919050565b82818337600083830152505050565b60005b838110156116f95780820151818401526020810190506116de565b83811115611708576000848401525b50505050565b6000600282049050600182168061172657607f821691505b6020821081141561173a576117396117b8565b5b50919050565b600061174b826116c2565b91507fffffffffffffffffffffffffffffffffffffffffffffffffffffffffffffffff82141561177e5761177d611789565b5b600182019050919050565b7f4e487b7100000000000000000000000000000000000000000000000000000000600052601160045260246000fd5b7f4e487b7100000000000000000000000000000000000000000000000000000000600052602260045260246000fd5b7f4e487b7100000000000000000000000000000000000000000000000000000000600052604160045260246000fd5b6000601f19601f8301169050919050565b611830816116c2565b811461183b57600080fd5b5056fea264697066735822122021246cbfc9d2470b1564cbd2e3173407258cd249b3fa9a88e678f5e3d42e65ec64736f6c63430008000033",
  "immutableReferences": {},
  "source": "// SPDX-License-Identifier: MIT\npragma solidity ^0.8.0;\n\ncontract FarmerRegistry {\n    struct Farmer {\n        string id;\n        string name;\n        string farmerAddress;\n        bool isRegistered;\n    }\n\n    mapping(string => Farmer) public farmers;\n    string[] public farmerIds;\n\n    event FarmerRegistered(string id, string name, string farmerAddress);\n    event FarmerUpdated(string id, string name, string farmerAddress);\n\n    function registerFarmer(\n        string memory _id,\n        string memory _name,\n        string memory _address\n    ) public {\n        require(bytes(_id).length > 0, \"ID cannot be empty\");\n        require(bytes(_name).length > 0, \"Name cannot be empty\");\n        require(bytes(_address).length > 0, \"Address cannot be empty\");\n        require(\n            !farmers[_id].isRegistered,\n            \"Farmer with this ID already exists\"\n        );\n\n        farmers[_id] = Farmer(_id, _name, _address, true);\n        farmerIds.push(_id);\n        emit FarmerRegistered(_id, _name, _address);\n    }\n\n    function updateFarmer(\n        string memory _id,\n        string memory _name,\n        string memory _address\n    ) public {\n        require(farmers[_id].isRegistered, \"Farmer does not exist\");\n        require(bytes(_name).length > 0, \"Name cannot be empty\");\n        require(bytes(_address).length > 0, \"Address cannot be empty\");\n\n        farmers[_id].name = _name;\n        farmers[_id].farmerAddress = _address;\n        emit FarmerUpdated(_id, _name, _address);\n    }\n\n    function getFarmer(\n        string memory _id\n    ) public view returns (string memory, string memory, string memory) {\n        require(farmers[_id].isRegistered, \"Farmer does not exist\");\n        Farmer memory farmer = farmers[_id];\n        return (farmer.id, farmer.name, farmer.farmerAddress);\n    }\n\n    function getFarmers() public view returns (Farmer[] memory) {\n        Farmer[] memory _farmers = new Farmer[](farmerIds.length);\n        for (uint i = 0; i < farmerIds.length; i++) {\n            _farmers[i] = farmers[farmerIds[i]];\n        }\n        return _farmers;\n    }\n\n    function getFarmerCount() public view returns (uint256) {\n        return farmerIds.length;\n    }\n}\n",
  "sourcePath": "/Users/dhafinrr/Documents/applications/farmer-registry-test/blockchain-based-applications/contracts/FarmerRegistry.sol",
  "compiler": {
    "name": "solc",
    "version": "0.8.0+commit.c7dfd78e.Emscripten.clang"
  },
  "schemaVersion": "3.4.16",
  "updatedAt": "2025-03-03T03:49:57.410Z",
  "networkType": "ethereum",
  "devdoc": {
    "kind": "dev",
    "methods": {},
    "version": 1
  },
  "userdoc": {
    "kind": "user",
    "methods": {},
    "version": 1
  }
}