{
  "contractName": "PucukTeh",
  "abi": [
    {
      "inputs": [],
      "stateMutability": "nonpayable",
      "type": "constructor"
    },
    {
      "inputs": [
        {
          "internalType": "uint256",
          "name": "",
          "type": "uint256"
        }
      ],
      "name": "ListPucukTeh",
      "outputs": [
        {
          "internalType": "uint256",
          "name": "id_teh",
          "type": "uint256"
        },
        {
          "internalType": "string",
          "name": "koordinat_kebun",
          "type": "string"
        },
        {
          "internalType": "string",
          "name": "varietas_teh",
          "type": "string"
        },
        {
          "internalType": "uint256",
          "name": "jumlah_setor",
          "type": "uint256"
        },
        {
          "internalType": "uint256",
          "name": "id_petani",
          "type": "uint256"
        }
      ],
      "stateMutability": "view",
      "type": "function",
      "constant": true
    },
    {
      "inputs": [],
      "name": "owner",
      "outputs": [
        {
          "internalType": "address",
          "name": "",
          "type": "address"
        }
      ],
      "stateMutability": "view",
      "type": "function",
      "constant": true
    },
    {
      "inputs": [
        {
          "internalType": "string",
          "name": "_koordinat",
          "type": "string"
        },
        {
          "internalType": "string",
          "name": "_varietas",
          "type": "string"
        },
        {
          "internalType": "uint256",
          "name": "_jumlah",
          "type": "uint256"
        },
        {
          "internalType": "uint256",
          "name": "_id_petani",
          "type": "uint256"
        }
      ],
      "name": "addPucukTeh",
      "outputs": [],
      "stateMutability": "nonpayable",
      "type": "function"
    },
    {
      "inputs": [
        {
          "internalType": "uint256",
          "name": "_id",
          "type": "uint256"
        },
        {
          "internalType": "string",
          "name": "_koordinat",
          "type": "string"
        },
        {
          "internalType": "string",
          "name": "_varietas",
          "type": "string"
        },
        {
          "internalType": "uint256",
          "name": "_jumlah",
          "type": "uint256"
        },
        {
          "internalType": "uint256",
          "name": "_id_petani",
          "type": "uint256"
        }
      ],
      "name": "updatePucukTeh",
      "outputs": [],
      "stateMutability": "nonpayable",
      "type": "function"
    },
    {
      "inputs": [],
      "name": "getAllPucukTeh",
      "outputs": [
        {
          "components": [
            {
              "internalType": "uint256",
              "name": "id_teh",
              "type": "uint256"
            },
            {
              "internalType": "string",
              "name": "koordinat_kebun",
              "type": "string"
            },
            {
              "internalType": "string",
              "name": "varietas_teh",
              "type": "string"
            },
            {
              "internalType": "uint256",
              "name": "jumlah_setor",
              "type": "uint256"
            },
            {
              "internalType": "uint256",
              "name": "id_petani",
              "type": "uint256"
            }
          ],
          "internalType": "struct PucukTeh.Pucuk[]",
          "name": "",
          "type": "tuple[]"
        }
      ],
      "stateMutability": "view",
      "type": "function",
      "constant": true
    },
    {
      "inputs": [
        {
          "internalType": "uint256",
          "name": "_idPucuk",
          "type": "uint256"
        }
      ],
      "name": "getDataPucukTeh",
      "outputs": [
        {
          "internalType": "uint256",
          "name": "",
          "type": "uint256"
        },
        {
          "internalType": "string",
          "name": "",
          "type": "string"
        },
        {
          "internalType": "string",
          "name": "",
          "type": "string"
        },
        {
          "internalType": "uint256",
          "name": "",
          "type": "uint256"
        },
        {
          "internalType": "uint256",
          "name": "",
          "type": "uint256"
        }
      ],
      "stateMutability": "view",
      "type": "function",
      "constant": true
    },
    {
      "inputs": [],
      "name": "getCountPucukTeh",
      "outputs": [
        {
          "internalType": "uint256",
          "name": "",
          "type": "uint256"
        }
      ],
      "stateMutability": "view",
      "type": "function",
      "constant": true
    }
  ],
  "bytecode": "0x608060405234801561001057600080fd5b50336000806101000a81548173ffffffffffffffffffffffffffffffffffffffff021916908373ffffffffffffffffffffffffffffffffffffffff16021790555061165c806100606000396000f3fe608060405234801561001057600080fd5b506004361061007d5760003560e01c8063375dfad01161005b578063375dfad0146100da5780634b79b17a1461010e5780638da5cb5b1461012a578063f7c98223146101485761007d565b80630ad067e1146100825780630b4bc55b146100a05780631133dad0146100be575b600080fd5b61008a61017c565b60405161009791906113ad565b60405180910390f35b6100a8610189565b6040516100b591906112ab565b60405180910390f35b6100d860048036038101906100d39190610d7c565b61032a565b005b6100f460048036038101906100ef9190610e0f565b610583565b6040516101059594939291906113c8565b60405180910390f35b61012860048036038101906101239190610e38565b6106d9565b005b610132610a23565b60405161013f9190611290565b60405180910390f35b610162600480360381019061015d9190610e0f565b610a47565b6040516101739594939291906113c8565b60405180910390f35b6000600180549050905090565b60606001805480602002602001604051908101604052809291908181526020016000905b8282101561032157838290600052602060002090600502016040518060a0016040529081600082015481526020016001820180546101ea9061156e565b80601f01602080910402602001604051908101604052809291908181526020018280546102169061156e565b80156102635780601f1061023857610100808354040283529160200191610263565b820191906000526020600020905b81548152906001019060200180831161024657829003601f168201915b5050505050815260200160028201805461027c9061156e565b80601f01602080910402602001604051908101604052809291908181526020018280546102a89061156e565b80156102f55780601f106102ca576101008083540402835291602001916102f5565b820191906000526020600020905b8154815290600101906020018083116102d857829003601f168201915b5050505050815260200160038201548152602001600482015481525050815260200190600101906101ad565b50505050905090565b60008054906101000a900473ffffffffffffffffffffffffffffffffffffffff1673ffffffffffffffffffffffffffffffffffffffff163373ffffffffffffffffffffffffffffffffffffffff16146103b8576040517f08c379a00000000000000000000000000000000000000000000000000000000081526004016103af906112cd565b60405180910390fd5b60008451116103fc576040517f08c379a00000000000000000000000000000000000000000000000000000000081526004016103f39061138d565b60405180910390fd5b6000835111610440576040517f08c379a00000000000000000000000000000000000000000000000000000000081526004016104379061130d565b60405180910390fd5b60008211610483576040517f08c379a000000000000000000000000000000000000000000000000000000000815260040161047a9061134d565b60405180910390fd5b600081116104c6576040517f08c379a00000000000000000000000000000000000000000000000000000000081526004016104bd906112ed565b60405180910390fd5b6000600180549050905060016040518060a00160405280838152602001878152602001868152602001858152602001848152509080600181540180825580915050600190039060005260206000209060050201600090919091909150600082015181600001556020820151816001019080519060200190610548929190610c5c565b506040820151816002019080519060200190610565929190610c5c565b50606082015181600301556080820151816004015550505050505050565b6001818154811061059357600080fd5b90600052602060002090600502016000915090508060000154908060010180546105bc9061156e565b80601f01602080910402602001604051908101604052809291908181526020018280546105e89061156e565b80156106355780601f1061060a57610100808354040283529160200191610635565b820191906000526020600020905b81548152906001019060200180831161061857829003601f168201915b50505050509080600201805461064a9061156e565b80601f01602080910402602001604051908101604052809291908181526020018280546106769061156e565b80156106c35780601f10610698576101008083540402835291602001916106c3565b820191906000526020600020905b8154815290600101906020018083116106a657829003601f168201915b5050505050908060030154908060040154905085565b60008054906101000a900473ffffffffffffffffffffffffffffffffffffffff1673ffffffffffffffffffffffffffffffffffffffff163373ffffffffffffffffffffffffffffffffffffffff1614610767576040517f08c379a000000000000000000000000000000000000000000000000000000000815260040161075e906112cd565b60405180910390fd5b60018054905085106107ae576040517f08c379a00000000000000000000000000000000000000000000000000000000081526004016107a59061132d565b60405180910390fd5b60008451116107f2576040517f08c379a00000000000000000000000000000000000000000000000000000000081526004016107e99061138d565b60405180910390fd5b6000835111610836576040517f08c379a000000000000000000000000000000000000000000000000000000000815260040161082d9061130d565b60405180910390fd5b60008211610879576040517f08c379a00000000000000000000000000000000000000000000000000000000081526004016108709061134d565b60405180910390fd5b600081116108bc576040517f08c379a00000000000000000000000000000000000000000000000000000000081526004016108b3906112ed565b60405180910390fd5b83600186815481106108f7577f4e487b7100000000000000000000000000000000000000000000000000000000600052603260045260246000fd5b9060005260206000209060050201600101908051906020019061091b929190610c5c565b508260018681548110610957577f4e487b7100000000000000000000000000000000000000000000000000000000600052603260045260246000fd5b9060005260206000209060050201600201908051906020019061097b929190610c5c565b5081600186815481106109b7577f4e487b7100000000000000000000000000000000000000000000000000000000600052603260045260246000fd5b9060005260206000209060050201600301819055508060018681548110610a07577f4e487b7100000000000000000000000000000000000000000000000000000000600052603260045260246000fd5b9060005260206000209060050201600401819055505050505050565b60008054906101000a900473ffffffffffffffffffffffffffffffffffffffff1681565b60006060806000806001805490508610610a96576040517f08c379a0000000000000000000000000000000000000000000000000000000008152600401610a8d9061136d565b60405180910390fd5b600060018781548110610ad2577f4e487b7100000000000000000000000000000000000000000000000000000000600052603260045260246000fd5b90600052602060002090600502016040518060a001604052908160008201548152602001600182018054610b059061156e565b80601f0160208091040260200160405190810160405280929190818152602001828054610b319061156e565b8015610b7e5780601f10610b5357610100808354040283529160200191610b7e565b820191906000526020600020905b815481529060010190602001808311610b6157829003601f168201915b50505050508152602001600282018054610b979061156e565b80601f0160208091040260200160405190810160405280929190818152602001828054610bc39061156e565b8015610c105780601f10610be557610100808354040283529160200191610c10565b820191906000526020600020905b815481529060010190602001808311610bf357829003601f168201915b5050505050815260200160038201548152602001600482015481525050905080600001518160200151826040015183606001518460800151955095509550955095505091939590929450565b828054610c689061156e565b90600052602060002090601f016020900481019282610c8a5760008555610cd1565b82601f10610ca357805160ff1916838001178555610cd1565b82800160010185558215610cd1579182015b82811115610cd0578251825591602001919060010190610cb5565b5b509050610cde9190610ce2565b5090565b5b80821115610cfb576000816000905550600101610ce3565b5090565b6000610d12610d0d8461145a565b611429565b905082815260208101848484011115610d2a57600080fd5b610d3584828561152c565b509392505050565b600082601f830112610d4e57600080fd5b8135610d5e848260208601610cff565b91505092915050565b600081359050610d768161160f565b92915050565b60008060008060808587031215610d9257600080fd5b600085013567ffffffffffffffff811115610dac57600080fd5b610db887828801610d3d565b945050602085013567ffffffffffffffff811115610dd557600080fd5b610de187828801610d3d565b9350506040610df287828801610d67565b9250506060610e0387828801610d67565b91505092959194509250565b600060208284031215610e2157600080fd5b6000610e2f84828501610d67565b91505092915050565b600080600080600060a08688031215610e5057600080fd5b6000610e5e88828901610d67565b955050602086013567ffffffffffffffff811115610e7b57600080fd5b610e8788828901610d3d565b945050604086013567ffffffffffffffff811115610ea457600080fd5b610eb088828901610d3d565b9350506060610ec188828901610d67565b9250506080610ed288828901610d67565b9150509295509295909350565b6000610eeb83836111f5565b905092915050565b610efc816114f0565b82525050565b6000610f0d8261149a565b610f1781856114bd565b935083602082028501610f298561148a565b8060005b85811015610f655784840389528151610f468582610edf565b9450610f51836114b0565b925060208a01995050600181019050610f2d565b50829750879550505050505092915050565b6000610f82826114a5565b610f8c81856114ce565b9350610f9c81856020860161153b565b610fa5816115fe565b840191505092915050565b6000610fbb826114a5565b610fc581856114df565b9350610fd581856020860161153b565b610fde816115fe565b840191505092915050565b6000610ff66022836114df565b91507f48616e7961206f776e65722079616e67206461706174206d656e6767756e616b60008301527f616e0000000000000000000000000000000000000000000000000000000000006020830152604082019050919050565b600061105c601c836114df565b91507f494420506574616e6920746964616b20626f6c6568206b6f736f6e67000000006000830152602082019050919050565b600061109c601f836114df565b91507f76617269657461732054656820746964616b20626f6c6568206b6f736f6e67006000830152602082019050919050565b60006110dc6016836114df565b91507f49442054656820746964616b20646974656d756b616e000000000000000000006000830152602082019050919050565b600061111c601f836114df565b91507f4a756d6c6168205365746f7220746964616b20626f6c6568206b6f736f6e67006000830152602082019050919050565b600061115c6013836114df565b91507f49442064696c756172206a616e676b6175616e000000000000000000000000006000830152602082019050919050565b600061119c6022836114df565b91507f4b6f6f7264696e6174204b6562756e20746964616b20626f6c6568206b6f736f60008301527f6e670000000000000000000000000000000000000000000000000000000000006020830152604082019050919050565b600060a08301600083015161120d6000860182611272565b50602083015184820360208601526112258282610f77565b9150506040830151848203604086015261123f8282610f77565b91505060608301516112546060860182611272565b5060808301516112676080860182611272565b508091505092915050565b61127b81611522565b82525050565b61128a81611522565b82525050565b60006020820190506112a56000830184610ef3565b92915050565b600060208201905081810360008301526112c58184610f02565b905092915050565b600060208201905081810360008301526112e681610fe9565b9050919050565b600060208201905081810360008301526113068161104f565b9050919050565b600060208201905081810360008301526113268161108f565b9050919050565b60006020820190508181036000830152611346816110cf565b9050919050565b600060208201905081810360008301526113668161110f565b9050919050565b600060208201905081810360008301526113868161114f565b9050919050565b600060208201905081810360008301526113a68161118f565b9050919050565b60006020820190506113c26000830184611281565b92915050565b600060a0820190506113dd6000830188611281565b81810360208301526113ef8187610fb0565b905081810360408301526114038186610fb0565b90506114126060830185611281565b61141f6080830184611281565b9695505050505050565b6000604051905081810181811067ffffffffffffffff821117156114505761144f6115cf565b5b8060405250919050565b600067ffffffffffffffff821115611475576114746115cf565b5b601f19601f8301169050602081019050919050565b6000819050602082019050919050565b600081519050919050565b600081519050919050565b6000602082019050919050565b600082825260208201905092915050565b600082825260208201905092915050565b600082825260208201905092915050565b60006114fb82611502565b9050919050565b600073ffffffffffffffffffffffffffffffffffffffff82169050919050565b6000819050919050565b82818337600083830152505050565b60005b8381101561155957808201518184015260208101905061153e565b83811115611568576000848401525b50505050565b6000600282049050600182168061158657607f821691505b6020821081141561159a576115996115a0565b5b50919050565b7f4e487b7100000000000000000000000000000000000000000000000000000000600052602260045260246000fd5b7f4e487b7100000000000000000000000000000000000000000000000000000000600052604160045260246000fd5b6000601f19601f8301169050919050565b61161881611522565b811461162357600080fd5b5056fea26469706673582212204c96e9bae5f6c55f2b79a7578d44f95d1d38444f4964d110a42e1b0bfb282ff264736f6c63430008000033",
  "immutableReferences": {},
  "source": "// SPDX-License-Identifier: MIT\npragma solidity ^0.8.0;\n\ncontract PucukTeh {\n    address public owner;\n\n    struct Pucuk {\n        uint id_teh;\n        string koordinat_kebun;\n        string varietas_teh;\n        uint jumlah_setor;\n        uint id_petani;\n    }\n\n    Pucuk[] public ListPucukTeh;\n\n    modifier onlyOwner() {\n        require(msg.sender == owner, \"Hanya owner yang dapat menggunakan\");\n        _;\n    }\n\n    constructor() {\n        owner = msg.sender;\n    }\n\n    function addPucukTeh(\n        string memory _koordinat,\n        string memory _varietas,\n        uint _jumlah,\n        uint _id_petani\n    ) public onlyOwner {\n        require(\n            bytes(_koordinat).length > 0,\n            \"Koordinat Kebun tidak boleh kosong\"\n        );\n        require(bytes(_varietas).length > 0, \"varietas Teh tidak boleh kosong\");\n        require(_jumlah > 0, \"Jumlah Setor tidak boleh kosong\");\n        require(_id_petani > 0, \"ID Petani tidak boleh kosong\");\n\n        uint newId = ListPucukTeh.length;\n        ListPucukTeh.push(\n            Pucuk(newId, _koordinat, _varietas, _jumlah, _id_petani)\n        );\n    }\n\n    function updatePucukTeh(\n        uint _id,\n        string memory _koordinat,\n        string memory _varietas,\n        uint _jumlah,\n        uint _id_petani\n    ) public onlyOwner {\n        require(_id < ListPucukTeh.length, \"ID Teh tidak ditemukan\");\n        require(\n            bytes(_koordinat).length > 0,\n            \"Koordinat Kebun tidak boleh kosong\"\n        );\n        require(bytes(_varietas).length > 0, \"varietas Teh tidak boleh kosong\");\n        require(_jumlah > 0, \"Jumlah Setor tidak boleh kosong\");\n        require(_id_petani > 0, \"ID Petani tidak boleh kosong\");\n\n        ListPucukTeh[_id].koordinat_kebun = _koordinat;\n        ListPucukTeh[_id].varietas_teh = _varietas;\n        ListPucukTeh[_id].jumlah_setor = _jumlah;\n        ListPucukTeh[_id].id_petani = _id_petani;\n    }\n\n    function getAllPucukTeh() public view returns (Pucuk[] memory) {\n        return ListPucukTeh;\n    }\n\n    function getDataPucukTeh(\n        uint _idPucuk\n    ) public view returns (uint, string memory, string memory, uint, uint) {\n        require(_idPucuk < ListPucukTeh.length, \"ID diluar jangkauan\");\n        Pucuk memory pucuk = ListPucukTeh[_idPucuk];\n        return (\n            pucuk.id_teh,\n            pucuk.koordinat_kebun,\n            pucuk.varietas_teh,\n            pucuk.jumlah_setor,\n            pucuk.id_petani\n        );\n    }\n\n    function getCountPucukTeh() public view returns (uint) {\n        return ListPucukTeh.length;\n    }\n}\n",
  "sourcePath": "/Users/dhafinrr/Documents/applications/farmer-registry-test/blockchain-based-applications/contracts/PucukTeh.sol",
  "compiler": {
    "name": "solc",
    "version": "0.8.0+commit.c7dfd78e.Emscripten.clang"
  },
  "schemaVersion": "3.4.16",
  "updatedAt": "2025-05-15T02:14:34.113Z",
  "networkType": "ethereum",
  "devdoc": {
    "kind": "dev",
    "methods": {},
    "version": 1
  },
  "userdoc": {
    "kind": "user",
    "methods": {},
    "version": 1
  }
}