{
  "contractName": "SetorTeh",
  "abi": [
    {
      "inputs": [],
      "stateMutability": "nonpayable",
      "type": "constructor"
    },
    {
      "inputs": [
        {
          "internalType": "uint256",
          "name": "",
          "type": "uint256"
        }
      ],
      "name": "listSetorTeh",
      "outputs": [
        {
          "internalType": "uint256",
          "name": "id",
          "type": "uint256"
        },
        {
          "internalType": "uint256",
          "name": "idPetani",
          "type": "uint256"
        },
        {
          "internalType": "uint8",
          "name": "bulan",
          "type": "uint8"
        },
        {
          "internalType": "uint8",
          "name": "hari",
          "type": "uint8"
        },
        {
          "internalType": "uint16",
          "name": "tahun",
          "type": "uint16"
        },
        {
          "internalType": "uint256",
          "name": "jumlahSetor",
          "type": "uint256"
        }
      ],
      "stateMutability": "view",
      "type": "function",
      "constant": true
    },
    {
      "inputs": [],
      "name": "nextId",
      "outputs": [
        {
          "internalType": "uint256",
          "name": "",
          "type": "uint256"
        }
      ],
      "stateMutability": "view",
      "type": "function",
      "constant": true
    },
    {
      "inputs": [],
      "name": "owner",
      "outputs": [
        {
          "internalType": "address",
          "name": "",
          "type": "address"
        }
      ],
      "stateMutability": "view",
      "type": "function",
      "constant": true
    },
    {
      "inputs": [
        {
          "internalType": "uint256",
          "name": "_idPetani",
          "type": "uint256"
        },
        {
          "internalType": "uint8",
          "name": "_bulan",
          "type": "uint8"
        },
        {
          "internalType": "uint8",
          "name": "_hari",
          "type": "uint8"
        },
        {
          "internalType": "uint16",
          "name": "_tahun",
          "type": "uint16"
        },
        {
          "internalType": "uint256",
          "name": "_jumlahSetor",
          "type": "uint256"
        }
      ],
      "name": "addSetorTeh",
      "outputs": [],
      "stateMutability": "nonpayable",
      "type": "function"
    },
    {
      "inputs": [
        {
          "internalType": "uint256",
          "name": "_id",
          "type": "uint256"
        },
        {
          "internalType": "uint256",
          "name": "_idPetani",
          "type": "uint256"
        },
        {
          "internalType": "uint8",
          "name": "_bulan",
          "type": "uint8"
        },
        {
          "internalType": "uint8",
          "name": "_hari",
          "type": "uint8"
        },
        {
          "internalType": "uint16",
          "name": "_tahun",
          "type": "uint16"
        },
        {
          "internalType": "uint256",
          "name": "_jumlahSetor",
          "type": "uint256"
        }
      ],
      "name": "updateSetorTeh",
      "outputs": [],
      "stateMutability": "nonpayable",
      "type": "function"
    },
    {
      "inputs": [],
      "name": "getAllSetorTeh",
      "outputs": [
        {
          "components": [
            {
              "internalType": "uint256",
              "name": "id",
              "type": "uint256"
            },
            {
              "internalType": "uint256",
              "name": "idPetani",
              "type": "uint256"
            },
            {
              "internalType": "uint8",
              "name": "bulan",
              "type": "uint8"
            },
            {
              "internalType": "uint8",
              "name": "hari",
              "type": "uint8"
            },
            {
              "internalType": "uint16",
              "name": "tahun",
              "type": "uint16"
            },
            {
              "internalType": "uint256",
              "name": "jumlahSetor",
              "type": "uint256"
            }
          ],
          "internalType": "struct SetorTeh.Setor[]",
          "name": "",
          "type": "tuple[]"
        }
      ],
      "stateMutability": "view",
      "type": "function",
      "constant": true
    },
    {
      "inputs": [
        {
          "internalType": "uint256",
          "name": "_id",
          "type": "uint256"
        }
      ],
      "name": "getDataSetorTeh",
      "outputs": [
        {
          "internalType": "uint256",
          "name": "",
          "type": "uint256"
        },
        {
          "internalType": "uint256",
          "name": "",
          "type": "uint256"
        },
        {
          "internalType": "uint8",
          "name": "",
          "type": "uint8"
        },
        {
          "internalType": "uint8",
          "name": "",
          "type": "uint8"
        },
        {
          "internalType": "uint16",
          "name": "",
          "type": "uint16"
        },
        {
          "internalType": "uint256",
          "name": "",
          "type": "uint256"
        }
      ],
      "stateMutability": "view",
      "type": "function",
      "constant": true
    },
    {
      "inputs": [],
      "name": "getCountSetorTeh",
      "outputs": [
        {
          "internalType": "uint256",
          "name": "",
          "type": "uint256"
        }
      ],
      "stateMutability": "view",
      "type": "function",
      "constant": true
    }
  ],
  "bytecode": "0x6080604052600160025534801561001557600080fd5b50336000806101000a81548173ffffffffffffffffffffffffffffffffffffffff021916908373ffffffffffffffffffffffffffffffffffffffff160217905550611334806100656000396000f3fe608060405234801561001057600080fd5b50600436106100885760003560e01c80638da5cb5b1161005b5780638da5cb5b1461010157806393b249681461011f5780639f3d96661461013d578063ea624e7b1461017257610088565b806347a769e61461008d57806361b8ce8c146100ab5780636364ee44146100c9578063758c44fc146100e5575b600080fd5b6100956101a7565b6040516100a2919061100e565b60405180910390f35b6100b361027e565b6040516100c091906110f0565b60405180910390f35b6100e360048036038101906100de9190610c7c565b610284565b005b6100ff60048036038101906100fa9190610bf3565b610566565b005b610109610978565b6040516101169190610ff3565b60405180910390f35b61012761099c565b60405161013491906110f0565b60405180910390f35b61015760048036038101906101529190610bca565b6109a9565b6040516101699695949392919061110b565b60405180910390f35b61018c60048036038101906101879190610bca565b610a1d565b60405161019e9695949392919061110b565b60405180910390f35b60606001805480602002602001604051908101604052809291908181526020016000905b8282101561027557838290600052602060002090600402016040518060c001604052908160008201548152602001600182015481526020016002820160009054906101000a900460ff1660ff1660ff1681526020016002820160019054906101000a900460ff1660ff1660ff1681526020016002820160029054906101000a900461ffff1661ffff1661ffff168152602001600382015481525050815260200190600101906101cb565b50505050905090565b60025481565b60008054906101000a900473ffffffffffffffffffffffffffffffffffffffff1673ffffffffffffffffffffffffffffffffffffffff163373ffffffffffffffffffffffffffffffffffffffff1614610312576040517f08c379a000000000000000000000000000000000000000000000000000000000815260040161030990611030565b60405180910390fd5b60018460ff161015801561032a5750600c8460ff1611155b610369576040517f08c379a000000000000000000000000000000000000000000000000000000000815260040161036090611050565b60405180910390fd5b60018360ff16101580156103815750601f8360ff1611155b6103c0576040517f08c379a00000000000000000000000000000000000000000000000000000000081526004016103b790611070565b60405180910390fd5b6107d08261ffff16101580156103dc575061270f8261ffff1611155b61041b576040517f08c379a0000000000000000000000000000000000000000000000000000000008152600401610412906110d0565b60405180910390fd5b6000811161045e576040517f08c379a0000000000000000000000000000000000000000000000000000000008152600401610455906110b0565b60405180910390fd5b60016040518060c0016040528060025481526020018781526020018660ff1681526020018560ff1681526020018461ffff168152602001838152509080600181540180825580915050600190039060005260206000209060040201600090919091909150600082015181600001556020820151816001015560408201518160020160006101000a81548160ff021916908360ff16021790555060608201518160020160016101000a81548160ff021916908360ff16021790555060808201518160020160026101000a81548161ffff021916908361ffff16021790555060a0820151816003015550506002600081548092919061055a90611241565b91905055505050505050565b60008054906101000a900473ffffffffffffffffffffffffffffffffffffffff1673ffffffffffffffffffffffffffffffffffffffff163373ffffffffffffffffffffffffffffffffffffffff16146105f4576040517f08c379a00000000000000000000000000000000000000000000000000000000081526004016105eb90611030565b60405180910390fd5b600086118015610605575060025486105b610644576040517f08c379a000000000000000000000000000000000000000000000000000000000815260040161063b90611090565b60405180910390fd5b60018460ff161015801561065c5750600c8460ff1611155b61069b576040517f08c379a000000000000000000000000000000000000000000000000000000000815260040161069290611050565b60405180910390fd5b60018360ff16101580156106b35750601f8360ff1611155b6106f2576040517f08c379a00000000000000000000000000000000000000000000000000000000081526004016106e990611070565b60405180910390fd5b6107d08261ffff161015801561070e575061270f8261ffff1611155b61074d576040517f08c379a0000000000000000000000000000000000000000000000000000000008152600401610744906110d0565b60405180910390fd5b60008111610790576040517f08c379a0000000000000000000000000000000000000000000000000000000008152600401610787906110b0565b60405180910390fd5b600060018761079f91906111b6565b905085600182815481106107dc577f4e487b7100000000000000000000000000000000000000000000000000000000600052603260045260246000fd5b906000526020600020906004020160010181905550846001828154811061082c577f4e487b7100000000000000000000000000000000000000000000000000000000600052603260045260246000fd5b906000526020600020906004020160020160006101000a81548160ff021916908360ff1602179055508360018281548110610890577f4e487b7100000000000000000000000000000000000000000000000000000000600052603260045260246000fd5b906000526020600020906004020160020160016101000a81548160ff021916908360ff16021790555082600182815481106108f4577f4e487b7100000000000000000000000000000000000000000000000000000000600052603260045260246000fd5b906000526020600020906004020160020160026101000a81548161ffff021916908361ffff160217905550816001828154811061095a577f4e487b7100000000000000000000000000000000000000000000000000000000600052603260045260246000fd5b90600052602060002090600402016003018190555050505050505050565b60008054906101000a900473ffffffffffffffffffffffffffffffffffffffff1681565b6000600180549050905090565b600181815481106109b957600080fd5b90600052602060002090600402016000915090508060000154908060010154908060020160009054906101000a900460ff16908060020160019054906101000a900460ff16908060020160029054906101000a900461ffff16908060030154905086565b600080600080600080600087118015610a37575060025487105b610a76576040517f08c379a0000000000000000000000000000000000000000000000000000000008152600401610a6d90611090565b60405180910390fd5b6000600188610a8591906111b6565b9050600060018281548110610ac3577f4e487b7100000000000000000000000000000000000000000000000000000000600052603260045260246000fd5b90600052602060002090600402016040518060c001604052908160008201548152602001600182015481526020016002820160009054906101000a900460ff1660ff1660ff1681526020016002820160019054906101000a900460ff1660ff1660ff1681526020016002820160029054906101000a900461ffff1661ffff1661ffff1681526020016003820154815250509050806000015181602001518260400151836060015184608001518560a00151975097509750975097509750505091939550919395565b600081359050610b9a816112b9565b92915050565b600081359050610baf816112d0565b92915050565b600081359050610bc4816112e7565b92915050565b600060208284031215610bdc57600080fd5b6000610bea84828501610ba0565b91505092915050565b60008060008060008060c08789031215610c0c57600080fd5b6000610c1a89828a01610ba0565b9650506020610c2b89828a01610ba0565b9550506040610c3c89828a01610bb5565b9450506060610c4d89828a01610bb5565b9350506080610c5e89828a01610b8b565b92505060a0610c6f89828a01610ba0565b9150509295509295509295565b600080600080600060a08688031215610c9457600080fd5b6000610ca288828901610ba0565b9550506020610cb388828901610bb5565b9450506040610cc488828901610bb5565b9350506060610cd588828901610b8b565b9250506080610ce688828901610ba0565b9150509295509295909350565b6000610cff8383610f1e565b60c08301905092915050565b610d14816111ea565b82525050565b6000610d258261117c565b610d2f8185611194565b9350610d3a8361116c565b8060005b83811015610d6b578151610d528882610cf3565b9750610d5d83611187565b925050600181019050610d3e565b5085935050505092915050565b6000610d856022836111a5565b91507f48616e7961206f776e65722079616e67206461706174206d656e6767756e616b60008301527f616e0000000000000000000000000000000000000000000000000000000000006020830152604082019050919050565b6000610deb601b836111a5565b91507f42756c616e20686172757320616e7461726120312064616e20313200000000006000830152602082019050919050565b6000610e2b601a836111a5565b91507f4861726920686172757320616e7461726120312064616e2033310000000000006000830152602082019050919050565b6000610e6b6018836111a5565b91507f4944207365746f7220746964616b20646974656d756b616e00000000000000006000830152602082019050919050565b6000610eab601f836111a5565b91507f4a756d6c6168207365746f72206861727573206c6562696820646172692030006000830152602082019050919050565b6000610eeb6013836111a5565b91507f546168756e2068617275732034206469676974000000000000000000000000006000830152602082019050919050565b60c082016000820151610f346000850182610fb7565b506020820151610f476020850182610fb7565b506040820151610f5a6040850182610fd5565b506060820151610f6d6060850182610fd5565b506080820151610f806080850182610f99565b5060a0820151610f9360a0850182610fb7565b50505050565b610fa2816111fc565b82525050565b610fb1816111fc565b82525050565b610fc08161122a565b82525050565b610fcf8161122a565b82525050565b610fde81611234565b82525050565b610fed81611234565b82525050565b60006020820190506110086000830184610d0b565b92915050565b600060208201905081810360008301526110288184610d1a565b905092915050565b6000602082019050818103600083015261104981610d78565b9050919050565b6000602082019050818103600083015261106981610dde565b9050919050565b6000602082019050818103600083015261108981610e1e565b9050919050565b600060208201905081810360008301526110a981610e5e565b9050919050565b600060208201905081810360008301526110c981610e9e565b9050919050565b600060208201905081810360008301526110e981610ede565b9050919050565b60006020820190506111056000830184610fc6565b92915050565b600060c0820190506111206000830189610fc6565b61112d6020830188610fc6565b61113a6040830187610fe4565b6111476060830186610fe4565b6111546080830185610fa8565b61116160a0830184610fc6565b979650505050505050565b6000819050602082019050919050565b600081519050919050565b6000602082019050919050565b600082825260208201905092915050565b600082825260208201905092915050565b60006111c18261122a565b91506111cc8361122a565b9250828210156111df576111de61128a565b5b828203905092915050565b60006111f58261120a565b9050919050565b600061ffff82169050919050565b600073ffffffffffffffffffffffffffffffffffffffff82169050919050565b6000819050919050565b600060ff82169050919050565b600061124c8261122a565b91507fffffffffffffffffffffffffffffffffffffffffffffffffffffffffffffffff82141561127f5761127e61128a565b5b600182019050919050565b7f4e487b7100000000000000000000000000000000000000000000000000000000600052601160045260246000fd5b6112c2816111fc565b81146112cd57600080fd5b50565b6112d98161122a565b81146112e457600080fd5b50565b6112f081611234565b81146112fb57600080fd5b5056fea26469706673582212208f51a4d467791d4d8487336899ad4f5d94b540c94f8e858c15b797b0c59e72a064736f6c63430008000033",
  "immutableReferences": {},
  "source": "// SPDX-License-Identifier: MIT\npragma solidity ^0.8.0;\n\ncontract SetorTeh {\n    address public owner;\n\n    struct Setor {\n        uint id;\n        uint idPetani; // Tambahkan field idPetani\n        uint8 bulan;\n        uint8 hari;\n        uint16 tahun;\n        uint jumlahSetor;\n    }\n\n    Setor[] public listSetorTeh;\n    uint public nextId = 1;\n\n    modifier onlyOwner() {\n        require(msg.sender == owner, \"Hanya owner yang dapat menggunakan\");\n        _;\n    }\n\n    constructor() {\n        owner = msg.sender;\n    }\n\n    function addSetorTeh(\n        uint _idPetani,\n        uint8 _bulan,\n        uint8 _hari,\n        uint16 _tahun,\n        uint _jumlahSetor\n    ) public onlyOwner {\n        require(_bulan >= 1 && _bulan <= 12, \"Bulan harus antara 1 dan 12\");\n        require(_hari >= 1 && _hari <= 31, \"Hari harus antara 1 dan 31\");\n        require(_tahun >= 2000 && _tahun <= 9999, \"Tahun harus 4 digit\");\n        require(_jumlahSetor > 0, \"Jumlah setor harus lebih dari 0\");\n        listSetorTeh.push(\n            Setor(nextId, _idPetani, _bulan, _hari, _tahun, _jumlahSetor)\n        );\n        nextId++;\n    }\n\n    function updateSetorTeh(\n        uint _id,\n        uint _idPetani,\n        uint8 _bulan,\n        uint8 _hari,\n        uint16 _tahun,\n        uint _jumlahSetor\n    ) public onlyOwner {\n        require(_id > 0 && _id < nextId, \"ID setor tidak ditemukan\");\n        require(_bulan >= 1 && _bulan <= 12, \"Bulan harus antara 1 dan 12\");\n        require(_hari >= 1 && _hari <= 31, \"Hari harus antara 1 dan 31\");\n        require(_tahun >= 2000 && _tahun <= 9999, \"Tahun harus 4 digit\");\n        require(_jumlahSetor > 0, \"Jumlah setor harus lebih dari 0\");\n        uint index = _id - 1;\n        listSetorTeh[index].idPetani = _idPetani;\n        listSetorTeh[index].bulan = _bulan;\n        listSetorTeh[index].hari = _hari;\n        listSetorTeh[index].tahun = _tahun;\n        listSetorTeh[index].jumlahSetor = _jumlahSetor;\n    }\n\n    function getAllSetorTeh() public view returns (Setor[] memory) {\n        return listSetorTeh;\n    }\n\n    function getDataSetorTeh(\n        uint _id\n    ) public view returns (uint, uint, uint8, uint8, uint16, uint) {\n        require(_id > 0 && _id < nextId, \"ID setor tidak ditemukan\");\n        uint index = _id - 1;\n        Setor memory setor = listSetorTeh[index];\n        return (\n            setor.id,\n            setor.idPetani,\n            setor.bulan,\n            setor.hari,\n            setor.tahun,\n            setor.jumlahSetor\n        );\n    }\n\n    function getCountSetorTeh() public view returns (uint) {\n        return listSetorTeh.length;\n    }\n}\n",
  "sourcePath": "/Users/dhafinrr/Documents/applications/farmer-registry-test/blockchain-based-applications/contracts/SetorTeh.sol",
  "compiler": {
    "name": "solc",
    "version": "0.8.0+commit.c7dfd78e.Emscripten.clang"
  },
  "schemaVersion": "3.4.16",
  "updatedAt": "2025-03-03T03:49:57.625Z",
  "networkType": "ethereum",
  "devdoc": {
    "kind": "dev",
    "methods": {},
    "version": 1
  },
  "userdoc": {
    "kind": "user",
    "methods": {},
    "version": 1
  }
}